{
	"contracts/ExampleMappingStruct.sol": {
		"MappingsStructExample": {
			"abi": [
				{
					"inputs": [
						{
							"internalType": "address",
							"name": "",
							"type": "address"
						}
					],
					"name": "balanceReceived",
					"outputs": [
						{
							"internalType": "uint256",
							"name": "totalBalance",
							"type": "uint256"
						},
						{
							"internalType": "uint256",
							"name": "numDeposits",
							"type": "uint256"
						},
						{
							"internalType": "uint256",
							"name": "numWithdrawals",
							"type": "uint256"
						}
					],
					"stateMutability": "view",
					"type": "function"
				},
				{
					"inputs": [],
					"name": "depositMoney",
					"outputs": [],
					"stateMutability": "payable",
					"type": "function"
				},
				{
					"inputs": [
						{
							"internalType": "address",
							"name": "_addr",
							"type": "address"
						}
					],
					"name": "getBalance",
					"outputs": [
						{
							"internalType": "uint256",
							"name": "",
							"type": "uint256"
						}
					],
					"stateMutability": "view",
					"type": "function"
				},
				{
					"inputs": [
						{
							"internalType": "address",
							"name": "_from",
							"type": "address"
						},
						{
							"internalType": "uint256",
							"name": "_numDeposit",
							"type": "uint256"
						}
					],
					"name": "getDeposiitNum",
					"outputs": [
						{
							"components": [
								{
									"internalType": "uint256",
									"name": "amount",
									"type": "uint256"
								},
								{
									"internalType": "uint256",
									"name": "timestamp",
									"type": "uint256"
								}
							],
							"internalType": "struct MappingsStructExample.Transaction",
							"name": "",
							"type": "tuple"
						}
					],
					"stateMutability": "view",
					"type": "function"
				},
				{
					"inputs": [
						{
							"internalType": "address payable",
							"name": "_to",
							"type": "address"
						},
						{
							"internalType": "uint256",
							"name": "_amount",
							"type": "uint256"
						}
					],
					"name": "withdrawMoney",
					"outputs": [],
					"stateMutability": "nonpayable",
					"type": "function"
				}
			],
			"devdoc": {
				"kind": "dev",
				"methods": {},
				"version": 1
			},
			"evm": {
				"assembly": "    /* \"contracts/ExampleMappingStruct.sol\":62:1644  contract MappingsStructExample {... */\n  mstore(0x40, 0x80)\n  callvalue\n  dup1\n  iszero\n  tag_1\n  jumpi\n  0x00\n  dup1\n  revert\ntag_1:\n  pop\n  dataSize(sub_0)\n  dup1\n  dataOffset(sub_0)\n  0x00\n  codecopy\n  0x00\n  return\nstop\n\nsub_0: assembly {\n        /* \"contracts/ExampleMappingStruct.sol\":62:1644  contract MappingsStructExample {... */\n      mstore(0x40, 0x80)\n      jumpi(tag_1, lt(calldatasize, 0x04))\n      shr(0xe0, calldataload(0x00))\n      dup1\n      0x16c05aa2\n      eq\n      tag_2\n      jumpi\n      dup1\n      0x97fc4437\n      eq\n      tag_3\n      jumpi\n      dup1\n      0xd18a42e1\n      eq\n      tag_4\n      jumpi\n      dup1\n      0xf274c897\n      eq\n      tag_5\n      jumpi\n      dup1\n      0xf8b2cb4f\n      eq\n      tag_6\n      jumpi\n    tag_1:\n      0x00\n      dup1\n      revert\n        /* \"contracts/ExampleMappingStruct.sol\":764:1106  function depositMoney() public payable {... */\n    tag_2:\n      tag_7\n      tag_8\n      jump\t// in\n    tag_7:\n      stop\n        /* \"contracts/ExampleMappingStruct.sol\":590:756  function getDeposiitNum(address _from, uint _numDeposit) public view returns(Transaction memory){... */\n    tag_3:\n      callvalue\n      dup1\n      iszero\n      tag_9\n      jumpi\n      0x00\n      dup1\n      revert\n    tag_9:\n      pop\n      tag_10\n      0x04\n      dup1\n      calldatasize\n      sub\n      dup2\n      add\n      swap1\n      tag_11\n      swap2\n      swap1\n      tag_12\n      jump\t// in\n    tag_11:\n      tag_13\n      jump\t// in\n    tag_10:\n      mload(0x40)\n      tag_14\n      swap2\n      swap1\n      tag_15\n      jump\t// in\n    tag_14:\n      mload(0x40)\n      dup1\n      swap2\n      sub\n      swap1\n      return\n        /* \"contracts/ExampleMappingStruct.sol\":399:449  mapping(address => Balance) public balanceReceived */\n    tag_4:\n      callvalue\n      dup1\n      iszero\n      tag_16\n      jumpi\n      0x00\n      dup1\n      revert\n    tag_16:\n      pop\n      tag_17\n      0x04\n      dup1\n      calldatasize\n      sub\n      dup2\n      add\n      swap1\n      tag_18\n      swap2\n      swap1\n      tag_19\n      jump\t// in\n    tag_18:\n      tag_20\n      jump\t// in\n    tag_17:\n      mload(0x40)\n      tag_21\n      swap4\n      swap3\n      swap2\n      swap1\n      tag_22\n      jump\t// in\n    tag_21:\n      mload(0x40)\n      dup1\n      swap2\n      sub\n      swap1\n      return\n        /* \"contracts/ExampleMappingStruct.sol\":1114:1641  function withdrawMoney(address payable _to, uint _amount) public {... */\n    tag_5:\n      callvalue\n      dup1\n      iszero\n      tag_23\n      jumpi\n      0x00\n      dup1\n      revert\n    tag_23:\n      pop\n      tag_24\n      0x04\n      dup1\n      calldatasize\n      sub\n      dup2\n      add\n      swap1\n      tag_25\n      swap2\n      swap1\n      tag_26\n      jump\t// in\n    tag_25:\n      tag_27\n      jump\t// in\n    tag_24:\n      stop\n        /* \"contracts/ExampleMappingStruct.sol\":460:582  function getBalance(address _addr) public view returns(uint) {... */\n    tag_6:\n      callvalue\n      dup1\n      iszero\n      tag_28\n      jumpi\n      0x00\n      dup1\n      revert\n    tag_28:\n      pop\n      tag_29\n      0x04\n      dup1\n      calldatasize\n      sub\n      dup2\n      add\n      swap1\n      tag_30\n      swap2\n      swap1\n      tag_19\n      jump\t// in\n    tag_30:\n      tag_31\n      jump\t// in\n    tag_29:\n      mload(0x40)\n      tag_32\n      swap2\n      swap1\n      tag_33\n      jump\t// in\n    tag_32:\n      mload(0x40)\n      dup1\n      swap2\n      sub\n      swap1\n      return\n        /* \"contracts/ExampleMappingStruct.sol\":764:1106  function depositMoney() public payable {... */\n    tag_8:\n        /* \"contracts/ExampleMappingStruct.sol\":858:867  msg.value */\n      callvalue\n        /* \"contracts/ExampleMappingStruct.sol\":814:829  balanceReceived */\n      0x00\n        /* \"contracts/ExampleMappingStruct.sol\":814:841  balanceReceived[msg.sender] */\n      dup1\n        /* \"contracts/ExampleMappingStruct.sol\":830:840  msg.sender */\n      caller\n        /* \"contracts/ExampleMappingStruct.sol\":814:841  balanceReceived[msg.sender] */\n      0xffffffffffffffffffffffffffffffffffffffff\n      and\n      0xffffffffffffffffffffffffffffffffffffffff\n      and\n      dup2\n      mstore\n      0x20\n      add\n      swap1\n      dup2\n      mstore\n      0x20\n      add\n      0x00\n      keccak256\n        /* \"contracts/ExampleMappingStruct.sol\":814:854  balanceReceived[msg.sender].totalBalance */\n      0x00\n      add\n      0x00\n        /* \"contracts/ExampleMappingStruct.sol\":814:867  balanceReceived[msg.sender].totalBalance += msg.value */\n      dup3\n      dup3\n      sload\n      tag_35\n      swap2\n      swap1\n      tag_36\n      jump\t// in\n    tag_35:\n      swap3\n      pop\n      pop\n      dup2\n      swap1\n      sstore\n      pop\n        /* \"contracts/ExampleMappingStruct.sol\":880:906  Transaction memory deposit */\n      0x00\n        /* \"contracts/ExampleMappingStruct.sol\":909:948  Transaction(msg.value, block.timestamp) */\n      mload(0x40)\n      dup1\n      0x40\n      add\n      0x40\n      mstore\n      dup1\n        /* \"contracts/ExampleMappingStruct.sol\":921:930  msg.value */\n      callvalue\n        /* \"contracts/ExampleMappingStruct.sol\":909:948  Transaction(msg.value, block.timestamp) */\n      dup2\n      mstore\n      0x20\n      add\n        /* \"contracts/ExampleMappingStruct.sol\":932:947  block.timestamp */\n      timestamp\n        /* \"contracts/ExampleMappingStruct.sol\":909:948  Transaction(msg.value, block.timestamp) */\n      dup2\n      mstore\n      pop\n        /* \"contracts/ExampleMappingStruct.sol\":880:948  Transaction memory deposit = Transaction(msg.value, block.timestamp) */\n      swap1\n      pop\n        /* \"contracts/ExampleMappingStruct.sol\":1039:1046  deposit */\n      dup1\n        /* \"contracts/ExampleMappingStruct.sol\":959:974  balanceReceived */\n      0x00\n        /* \"contracts/ExampleMappingStruct.sol\":959:986  balanceReceived[msg.sender] */\n      dup1\n        /* \"contracts/ExampleMappingStruct.sol\":975:985  msg.sender */\n      caller\n        /* \"contracts/ExampleMappingStruct.sol\":959:986  balanceReceived[msg.sender] */\n      0xffffffffffffffffffffffffffffffffffffffff\n      and\n      0xffffffffffffffffffffffffffffffffffffffff\n      and\n      dup2\n      mstore\n      0x20\n      add\n      swap1\n      dup2\n      mstore\n      0x20\n      add\n      0x00\n      keccak256\n        /* \"contracts/ExampleMappingStruct.sol\":959:995  balanceReceived[msg.sender].deposits */\n      0x02\n      add\n        /* \"contracts/ExampleMappingStruct.sol\":959:1036  balanceReceived[msg.sender].deposits[balanceReceived[msg.sender].numDeposits] */\n      0x00\n        /* \"contracts/ExampleMappingStruct.sol\":996:1011  balanceReceived */\n      dup1\n        /* \"contracts/ExampleMappingStruct.sol\":996:1023  balanceReceived[msg.sender] */\n      0x00\n        /* \"contracts/ExampleMappingStruct.sol\":1012:1022  msg.sender */\n      caller\n        /* \"contracts/ExampleMappingStruct.sol\":996:1023  balanceReceived[msg.sender] */\n      0xffffffffffffffffffffffffffffffffffffffff\n      and\n      0xffffffffffffffffffffffffffffffffffffffff\n      and\n      dup2\n      mstore\n      0x20\n      add\n      swap1\n      dup2\n      mstore\n      0x20\n      add\n      0x00\n      keccak256\n        /* \"contracts/ExampleMappingStruct.sol\":996:1035  balanceReceived[msg.sender].numDeposits */\n      0x01\n      add\n      sload\n        /* \"contracts/ExampleMappingStruct.sol\":959:1036  balanceReceived[msg.sender].deposits[balanceReceived[msg.sender].numDeposits] */\n      dup2\n      mstore\n      0x20\n      add\n      swap1\n      dup2\n      mstore\n      0x20\n      add\n      0x00\n      keccak256\n        /* \"contracts/ExampleMappingStruct.sol\":959:1046  balanceReceived[msg.sender].deposits[balanceReceived[msg.sender].numDeposits] = deposit */\n      0x00\n      dup3\n      add\n      mload\n      dup2\n      0x00\n      add\n      sstore\n      0x20\n      dup3\n      add\n      mload\n      dup2\n      0x01\n      add\n      sstore\n      swap1\n      pop\n      pop\n        /* \"contracts/ExampleMappingStruct.sol\":1057:1072  balanceReceived */\n      0x00\n        /* \"contracts/ExampleMappingStruct.sol\":1057:1084  balanceReceived[msg.sender] */\n      dup1\n        /* \"contracts/ExampleMappingStruct.sol\":1073:1083  msg.sender */\n      caller\n        /* \"contracts/ExampleMappingStruct.sol\":1057:1084  balanceReceived[msg.sender] */\n      0xffffffffffffffffffffffffffffffffffffffff\n      and\n      0xffffffffffffffffffffffffffffffffffffffff\n      and\n      dup2\n      mstore\n      0x20\n      add\n      swap1\n      dup2\n      mstore\n      0x20\n      add\n      0x00\n      keccak256\n        /* \"contracts/ExampleMappingStruct.sol\":1057:1096  balanceReceived[msg.sender].numDeposits */\n      0x01\n      add\n      0x00\n        /* \"contracts/ExampleMappingStruct.sol\":1057:1098  balanceReceived[msg.sender].numDeposits++ */\n      dup2\n      sload\n      dup1\n      swap3\n      swap2\n      swap1\n      tag_37\n      swap1\n      tag_38\n      jump\t// in\n    tag_37:\n      swap2\n      swap1\n      pop\n      sstore\n      pop\n        /* \"contracts/ExampleMappingStruct.sol\":803:1106  {... */\n      pop\n        /* \"contracts/ExampleMappingStruct.sol\":764:1106  function depositMoney() public payable {... */\n      jump\t// out\n        /* \"contracts/ExampleMappingStruct.sol\":590:756  function getDeposiitNum(address _from, uint _numDeposit) public view returns(Transaction memory){... */\n    tag_13:\n        /* \"contracts/ExampleMappingStruct.sol\":667:685  Transaction memory */\n      tag_39\n      tag_40\n      jump\t// in\n    tag_39:\n        /* \"contracts/ExampleMappingStruct.sol\":704:719  balanceReceived */\n      0x00\n        /* \"contracts/ExampleMappingStruct.sol\":704:726  balanceReceived[_from] */\n      dup1\n        /* \"contracts/ExampleMappingStruct.sol\":720:725  _from */\n      dup5\n        /* \"contracts/ExampleMappingStruct.sol\":704:726  balanceReceived[_from] */\n      0xffffffffffffffffffffffffffffffffffffffff\n      and\n      0xffffffffffffffffffffffffffffffffffffffff\n      and\n      dup2\n      mstore\n      0x20\n      add\n      swap1\n      dup2\n      mstore\n      0x20\n      add\n      0x00\n      keccak256\n        /* \"contracts/ExampleMappingStruct.sol\":704:735  balanceReceived[_from].deposits */\n      0x02\n      add\n        /* \"contracts/ExampleMappingStruct.sol\":704:748  balanceReceived[_from].deposits[_numDeposit] */\n      0x00\n        /* \"contracts/ExampleMappingStruct.sol\":736:747  _numDeposit */\n      dup4\n        /* \"contracts/ExampleMappingStruct.sol\":704:748  balanceReceived[_from].deposits[_numDeposit] */\n      dup2\n      mstore\n      0x20\n      add\n      swap1\n      dup2\n      mstore\n      0x20\n      add\n      0x00\n      keccak256\n        /* \"contracts/ExampleMappingStruct.sol\":697:748  return balanceReceived[_from].deposits[_numDeposit] */\n      mload(0x40)\n      dup1\n      0x40\n      add\n      0x40\n      mstore\n      swap1\n      dup2\n      0x00\n      dup3\n      add\n      sload\n      dup2\n      mstore\n      0x20\n      add\n      0x01\n      dup3\n      add\n      sload\n      dup2\n      mstore\n      pop\n      pop\n      swap1\n      pop\n        /* \"contracts/ExampleMappingStruct.sol\":590:756  function getDeposiitNum(address _from, uint _numDeposit) public view returns(Transaction memory){... */\n      swap3\n      swap2\n      pop\n      pop\n      jump\t// out\n        /* \"contracts/ExampleMappingStruct.sol\":399:449  mapping(address => Balance) public balanceReceived */\n    tag_20:\n      mstore(0x20, 0x00)\n      dup1\n      0x00\n      mstore\n      keccak256(0x00, 0x40)\n      0x00\n      swap2\n      pop\n      swap1\n      pop\n      dup1\n      0x00\n      add\n      sload\n      swap1\n      dup1\n      0x01\n      add\n      sload\n      swap1\n      dup1\n      0x03\n      add\n      sload\n      swap1\n      pop\n      dup4\n      jump\t// out\n        /* \"contracts/ExampleMappingStruct.sol\":1114:1641  function withdrawMoney(address payable _to, uint _amount) public {... */\n    tag_27:\n        /* \"contracts/ExampleMappingStruct.sol\":1234:1241  _amount */\n      dup1\n        /* \"contracts/ExampleMappingStruct.sol\":1190:1205  balanceReceived */\n      0x00\n        /* \"contracts/ExampleMappingStruct.sol\":1190:1217  balanceReceived[msg.sender] */\n      dup1\n        /* \"contracts/ExampleMappingStruct.sol\":1206:1216  msg.sender */\n      caller\n        /* \"contracts/ExampleMappingStruct.sol\":1190:1217  balanceReceived[msg.sender] */\n      0xffffffffffffffffffffffffffffffffffffffff\n      and\n      0xffffffffffffffffffffffffffffffffffffffff\n      and\n      dup2\n      mstore\n      0x20\n      add\n      swap1\n      dup2\n      mstore\n      0x20\n      add\n      0x00\n      keccak256\n        /* \"contracts/ExampleMappingStruct.sol\":1190:1230  balanceReceived[msg.sender].totalBalance */\n      0x00\n      add\n      0x00\n        /* \"contracts/ExampleMappingStruct.sol\":1190:1241  balanceReceived[msg.sender].totalBalance -= _amount */\n      dup3\n      dup3\n      sload\n      tag_43\n      swap2\n      swap1\n      tag_44\n      jump\t// in\n    tag_43:\n      swap3\n      pop\n      pop\n      dup2\n      swap1\n      sstore\n      pop\n        /* \"contracts/ExampleMappingStruct.sol\":1336:1365  Transaction memory withdrawal */\n      0x00\n        /* \"contracts/ExampleMappingStruct.sol\":1368:1405  Transaction(_amount, block.timestamp) */\n      mload(0x40)\n      dup1\n      0x40\n      add\n      0x40\n      mstore\n      dup1\n        /* \"contracts/ExampleMappingStruct.sol\":1380:1387  _amount */\n      dup4\n        /* \"contracts/ExampleMappingStruct.sol\":1368:1405  Transaction(_amount, block.timestamp) */\n      dup2\n      mstore\n      0x20\n      add\n        /* \"contracts/ExampleMappingStruct.sol\":1389:1404  block.timestamp */\n      timestamp\n        /* \"contracts/ExampleMappingStruct.sol\":1368:1405  Transaction(_amount, block.timestamp) */\n      dup2\n      mstore\n      pop\n        /* \"contracts/ExampleMappingStruct.sol\":1336:1405  Transaction memory withdrawal = Transaction(_amount, block.timestamp) */\n      swap1\n      pop\n        /* \"contracts/ExampleMappingStruct.sol\":1502:1512  withdrawal */\n      dup1\n        /* \"contracts/ExampleMappingStruct.sol\":1416:1431  balanceReceived */\n      0x00\n        /* \"contracts/ExampleMappingStruct.sol\":1416:1443  balanceReceived[msg.sender] */\n      dup1\n        /* \"contracts/ExampleMappingStruct.sol\":1432:1442  msg.sender */\n      caller\n        /* \"contracts/ExampleMappingStruct.sol\":1416:1443  balanceReceived[msg.sender] */\n      0xffffffffffffffffffffffffffffffffffffffff\n      and\n      0xffffffffffffffffffffffffffffffffffffffff\n      and\n      dup2\n      mstore\n      0x20\n      add\n      swap1\n      dup2\n      mstore\n      0x20\n      add\n      0x00\n      keccak256\n        /* \"contracts/ExampleMappingStruct.sol\":1416:1455  balanceReceived[msg.sender].withdrawals */\n      0x04\n      add\n        /* \"contracts/ExampleMappingStruct.sol\":1416:1499  balanceReceived[msg.sender].withdrawals[balanceReceived[msg.sender].numWithdrawals] */\n      0x00\n        /* \"contracts/ExampleMappingStruct.sol\":1456:1471  balanceReceived */\n      dup1\n        /* \"contracts/ExampleMappingStruct.sol\":1456:1483  balanceReceived[msg.sender] */\n      0x00\n        /* \"contracts/ExampleMappingStruct.sol\":1472:1482  msg.sender */\n      caller\n        /* \"contracts/ExampleMappingStruct.sol\":1456:1483  balanceReceived[msg.sender] */\n      0xffffffffffffffffffffffffffffffffffffffff\n      and\n      0xffffffffffffffffffffffffffffffffffffffff\n      and\n      dup2\n      mstore\n      0x20\n      add\n      swap1\n      dup2\n      mstore\n      0x20\n      add\n      0x00\n      keccak256\n        /* \"contracts/ExampleMappingStruct.sol\":1456:1498  balanceReceived[msg.sender].numWithdrawals */\n      0x03\n      add\n      sload\n        /* \"contracts/ExampleMappingStruct.sol\":1416:1499  balanceReceived[msg.sender].withdrawals[balanceReceived[msg.sender].numWithdrawals] */\n      dup2\n      mstore\n      0x20\n      add\n      swap1\n      dup2\n      mstore\n      0x20\n      add\n      0x00\n      keccak256\n        /* \"contracts/ExampleMappingStruct.sol\":1416:1512  balanceReceived[msg.sender].withdrawals[balanceReceived[msg.sender].numWithdrawals] = withdrawal */\n      0x00\n      dup3\n      add\n      mload\n      dup2\n      0x00\n      add\n      sstore\n      0x20\n      dup3\n      add\n      mload\n      dup2\n      0x01\n      add\n      sstore\n      swap1\n      pop\n      pop\n        /* \"contracts/ExampleMappingStruct.sol\":1523:1538  balanceReceived */\n      0x00\n        /* \"contracts/ExampleMappingStruct.sol\":1523:1550  balanceReceived[msg.sender] */\n      dup1\n        /* \"contracts/ExampleMappingStruct.sol\":1539:1549  msg.sender */\n      caller\n        /* \"contracts/ExampleMappingStruct.sol\":1523:1550  balanceReceived[msg.sender] */\n      0xffffffffffffffffffffffffffffffffffffffff\n      and\n      0xffffffffffffffffffffffffffffffffffffffff\n      and\n      dup2\n      mstore\n      0x20\n      add\n      swap1\n      dup2\n      mstore\n      0x20\n      add\n      0x00\n      keccak256\n        /* \"contracts/ExampleMappingStruct.sol\":1523:1565  balanceReceived[msg.sender].numWithdrawals */\n      0x03\n      add\n      0x00\n        /* \"contracts/ExampleMappingStruct.sol\":1523:1567  balanceReceived[msg.sender].numWithdrawals++ */\n      dup2\n      sload\n      dup1\n      swap3\n      swap2\n      swap1\n      tag_45\n      swap1\n      tag_38\n      jump\t// in\n    tag_45:\n      swap2\n      swap1\n      pop\n      sstore\n      pop\n        /* \"contracts/ExampleMappingStruct.sol\":1612:1615  _to */\n      dup3\n        /* \"contracts/ExampleMappingStruct.sol\":1612:1624  _to.transfer */\n      0xffffffffffffffffffffffffffffffffffffffff\n      and\n        /* \"contracts/ExampleMappingStruct.sol\":1612:1633  _to.transfer(_amount) */\n      0x08fc\n        /* \"contracts/ExampleMappingStruct.sol\":1625:1632  _amount */\n      dup4\n        /* \"contracts/ExampleMappingStruct.sol\":1612:1633  _to.transfer(_amount) */\n      swap1\n      dup2\n      iszero\n      mul\n      swap1\n      mload(0x40)\n      0x00\n      mload(0x40)\n      dup1\n      dup4\n      sub\n      dup2\n      dup6\n      dup9\n      dup9\n      call\n      swap4\n      pop\n      pop\n      pop\n      pop\n      iszero\n      dup1\n      iszero\n      tag_47\n      jumpi\n      returndatasize\n      0x00\n      dup1\n      returndatacopy\n      revert(0x00, returndatasize)\n    tag_47:\n      pop\n        /* \"contracts/ExampleMappingStruct.sol\":1179:1641  {... */\n      pop\n        /* \"contracts/ExampleMappingStruct.sol\":1114:1641  function withdrawMoney(address payable _to, uint _amount) public {... */\n      pop\n      pop\n      jump\t// out\n        /* \"contracts/ExampleMappingStruct.sol\":460:582  function getBalance(address _addr) public view returns(uint) {... */\n    tag_31:\n        /* \"contracts/ExampleMappingStruct.sol\":515:519  uint */\n      0x00\n        /* \"contracts/ExampleMappingStruct.sol\":539:554  balanceReceived */\n      dup1\n        /* \"contracts/ExampleMappingStruct.sol\":539:561  balanceReceived[_addr] */\n      0x00\n        /* \"contracts/ExampleMappingStruct.sol\":555:560  _addr */\n      dup4\n        /* \"contracts/ExampleMappingStruct.sol\":539:561  balanceReceived[_addr] */\n      0xffffffffffffffffffffffffffffffffffffffff\n      and\n      0xffffffffffffffffffffffffffffffffffffffff\n      and\n      dup2\n      mstore\n      0x20\n      add\n      swap1\n      dup2\n      mstore\n      0x20\n      add\n      0x00\n      keccak256\n        /* \"contracts/ExampleMappingStruct.sol\":539:574  balanceReceived[_addr].totalBalance */\n      0x00\n      add\n      sload\n        /* \"contracts/ExampleMappingStruct.sol\":532:574  return balanceReceived[_addr].totalBalance */\n      swap1\n      pop\n        /* \"contracts/ExampleMappingStruct.sol\":460:582  function getBalance(address _addr) public view returns(uint) {... */\n      swap2\n      swap1\n      pop\n      jump\t// out\n    tag_40:\n      mload(0x40)\n      dup1\n      0x40\n      add\n      0x40\n      mstore\n      dup1\n      0x00\n      dup2\n      mstore\n      0x20\n      add\n      0x00\n      dup2\n      mstore\n      pop\n      swap1\n      jump\t// out\n        /* \"#utility.yul\":88:205   */\n    tag_50:\n        /* \"#utility.yul\":197:198   */\n      0x00\n        /* \"#utility.yul\":194:195   */\n      dup1\n        /* \"#utility.yul\":187:199   */\n      revert\n        /* \"#utility.yul\":334:460   */\n    tag_52:\n        /* \"#utility.yul\":371:378   */\n      0x00\n        /* \"#utility.yul\":411:453   */\n      0xffffffffffffffffffffffffffffffffffffffff\n        /* \"#utility.yul\":404:409   */\n      dup3\n        /* \"#utility.yul\":400:454   */\n      and\n        /* \"#utility.yul\":389:454   */\n      swap1\n      pop\n        /* \"#utility.yul\":334:460   */\n      swap2\n      swap1\n      pop\n      jump\t// out\n        /* \"#utility.yul\":466:562   */\n    tag_53:\n        /* \"#utility.yul\":503:510   */\n      0x00\n        /* \"#utility.yul\":532:556   */\n      tag_72\n        /* \"#utility.yul\":550:555   */\n      dup3\n        /* \"#utility.yul\":532:556   */\n      tag_52\n      jump\t// in\n    tag_72:\n        /* \"#utility.yul\":521:556   */\n      swap1\n      pop\n        /* \"#utility.yul\":466:562   */\n      swap2\n      swap1\n      pop\n      jump\t// out\n        /* \"#utility.yul\":568:690   */\n    tag_54:\n        /* \"#utility.yul\":641:665   */\n      tag_74\n        /* \"#utility.yul\":659:664   */\n      dup2\n        /* \"#utility.yul\":641:665   */\n      tag_53\n      jump\t// in\n    tag_74:\n        /* \"#utility.yul\":634:639   */\n      dup2\n        /* \"#utility.yul\":631:666   */\n      eq\n        /* \"#utility.yul\":621:684   */\n      tag_75\n      jumpi\n        /* \"#utility.yul\":680:681   */\n      0x00\n        /* \"#utility.yul\":677:678   */\n      dup1\n        /* \"#utility.yul\":670:682   */\n      revert\n        /* \"#utility.yul\":621:684   */\n    tag_75:\n        /* \"#utility.yul\":568:690   */\n      pop\n      jump\t// out\n        /* \"#utility.yul\":696:835   */\n    tag_55:\n        /* \"#utility.yul\":742:747   */\n      0x00\n        /* \"#utility.yul\":780:786   */\n      dup2\n        /* \"#utility.yul\":767:787   */\n      calldataload\n        /* \"#utility.yul\":758:787   */\n      swap1\n      pop\n        /* \"#utility.yul\":796:829   */\n      tag_77\n        /* \"#utility.yul\":823:828   */\n      dup2\n        /* \"#utility.yul\":796:829   */\n      tag_54\n      jump\t// in\n    tag_77:\n        /* \"#utility.yul\":696:835   */\n      swap3\n      swap2\n      pop\n      pop\n      jump\t// out\n        /* \"#utility.yul\":841:918   */\n    tag_56:\n        /* \"#utility.yul\":878:885   */\n      0x00\n        /* \"#utility.yul\":907:912   */\n      dup2\n        /* \"#utility.yul\":896:912   */\n      swap1\n      pop\n        /* \"#utility.yul\":841:918   */\n      swap2\n      swap1\n      pop\n      jump\t// out\n        /* \"#utility.yul\":924:1046   */\n    tag_57:\n        /* \"#utility.yul\":997:1021   */\n      tag_80\n        /* \"#utility.yul\":1015:1020   */\n      dup2\n        /* \"#utility.yul\":997:1021   */\n      tag_56\n      jump\t// in\n    tag_80:\n        /* \"#utility.yul\":990:995   */\n      dup2\n        /* \"#utility.yul\":987:1022   */\n      eq\n        /* \"#utility.yul\":977:1040   */\n      tag_81\n      jumpi\n        /* \"#utility.yul\":1036:1037   */\n      0x00\n        /* \"#utility.yul\":1033:1034   */\n      dup1\n        /* \"#utility.yul\":1026:1038   */\n      revert\n        /* \"#utility.yul\":977:1040   */\n    tag_81:\n        /* \"#utility.yul\":924:1046   */\n      pop\n      jump\t// out\n        /* \"#utility.yul\":1052:1191   */\n    tag_58:\n        /* \"#utility.yul\":1098:1103   */\n      0x00\n        /* \"#utility.yul\":1136:1142   */\n      dup2\n        /* \"#utility.yul\":1123:1143   */\n      calldataload\n        /* \"#utility.yul\":1114:1143   */\n      swap1\n      pop\n        /* \"#utility.yul\":1152:1185   */\n      tag_83\n        /* \"#utility.yul\":1179:1184   */\n      dup2\n        /* \"#utility.yul\":1152:1185   */\n      tag_57\n      jump\t// in\n    tag_83:\n        /* \"#utility.yul\":1052:1191   */\n      swap3\n      swap2\n      pop\n      pop\n      jump\t// out\n        /* \"#utility.yul\":1197:1671   */\n    tag_12:\n        /* \"#utility.yul\":1265:1271   */\n      0x00\n        /* \"#utility.yul\":1273:1279   */\n      dup1\n        /* \"#utility.yul\":1322:1324   */\n      0x40\n        /* \"#utility.yul\":1310:1319   */\n      dup4\n        /* \"#utility.yul\":1301:1308   */\n      dup6\n        /* \"#utility.yul\":1297:1320   */\n      sub\n        /* \"#utility.yul\":1293:1325   */\n      slt\n        /* \"#utility.yul\":1290:1409   */\n      iszero\n      tag_85\n      jumpi\n        /* \"#utility.yul\":1328:1407   */\n      tag_86\n      tag_50\n      jump\t// in\n    tag_86:\n        /* \"#utility.yul\":1290:1409   */\n    tag_85:\n        /* \"#utility.yul\":1448:1449   */\n      0x00\n        /* \"#utility.yul\":1473:1526   */\n      tag_87\n        /* \"#utility.yul\":1518:1525   */\n      dup6\n        /* \"#utility.yul\":1509:1515   */\n      dup3\n        /* \"#utility.yul\":1498:1507   */\n      dup7\n        /* \"#utility.yul\":1494:1516   */\n      add\n        /* \"#utility.yul\":1473:1526   */\n      tag_55\n      jump\t// in\n    tag_87:\n        /* \"#utility.yul\":1463:1526   */\n      swap3\n      pop\n        /* \"#utility.yul\":1419:1536   */\n      pop\n        /* \"#utility.yul\":1575:1577   */\n      0x20\n        /* \"#utility.yul\":1601:1654   */\n      tag_88\n        /* \"#utility.yul\":1646:1653   */\n      dup6\n        /* \"#utility.yul\":1637:1643   */\n      dup3\n        /* \"#utility.yul\":1626:1635   */\n      dup7\n        /* \"#utility.yul\":1622:1644   */\n      add\n        /* \"#utility.yul\":1601:1654   */\n      tag_58\n      jump\t// in\n    tag_88:\n        /* \"#utility.yul\":1591:1654   */\n      swap2\n      pop\n        /* \"#utility.yul\":1546:1664   */\n      pop\n        /* \"#utility.yul\":1197:1671   */\n      swap3\n      pop\n      swap3\n      swap1\n      pop\n      jump\t// out\n        /* \"#utility.yul\":1677:1785   */\n    tag_59:\n        /* \"#utility.yul\":1754:1778   */\n      tag_90\n        /* \"#utility.yul\":1772:1777   */\n      dup2\n        /* \"#utility.yul\":1754:1778   */\n      tag_56\n      jump\t// in\n    tag_90:\n        /* \"#utility.yul\":1749:1752   */\n      dup3\n        /* \"#utility.yul\":1742:1779   */\n      mstore\n        /* \"#utility.yul\":1677:1785   */\n      pop\n      pop\n      jump\t// out\n        /* \"#utility.yul\":1883:2399   */\n    tag_60:\n        /* \"#utility.yul\":2032:2036   */\n      0x40\n        /* \"#utility.yul\":2027:2030   */\n      dup3\n        /* \"#utility.yul\":2023:2037   */\n      add\n        /* \"#utility.yul\":2121:2125   */\n      0x00\n        /* \"#utility.yul\":2114:2119   */\n      dup3\n        /* \"#utility.yul\":2110:2126   */\n      add\n        /* \"#utility.yul\":2104:2127   */\n      mload\n        /* \"#utility.yul\":2140:2203   */\n      tag_92\n        /* \"#utility.yul\":2197:2201   */\n      0x00\n        /* \"#utility.yul\":2192:2195   */\n      dup6\n        /* \"#utility.yul\":2188:2202   */\n      add\n        /* \"#utility.yul\":2174:2186   */\n      dup3\n        /* \"#utility.yul\":2140:2203   */\n      tag_59\n      jump\t// in\n    tag_92:\n        /* \"#utility.yul\":2047:2213   */\n      pop\n        /* \"#utility.yul\":2300:2304   */\n      0x20\n        /* \"#utility.yul\":2293:2298   */\n      dup3\n        /* \"#utility.yul\":2289:2305   */\n      add\n        /* \"#utility.yul\":2283:2306   */\n      mload\n        /* \"#utility.yul\":2319:2382   */\n      tag_93\n        /* \"#utility.yul\":2376:2380   */\n      0x20\n        /* \"#utility.yul\":2371:2374   */\n      dup6\n        /* \"#utility.yul\":2367:2381   */\n      add\n        /* \"#utility.yul\":2353:2365   */\n      dup3\n        /* \"#utility.yul\":2319:2382   */\n      tag_59\n      jump\t// in\n    tag_93:\n        /* \"#utility.yul\":2223:2392   */\n      pop\n        /* \"#utility.yul\":2001:2399   */\n      pop\n        /* \"#utility.yul\":1883:2399   */\n      pop\n      pop\n      jump\t// out\n        /* \"#utility.yul\":2405:2731   */\n    tag_15:\n        /* \"#utility.yul\":2550:2554   */\n      0x00\n        /* \"#utility.yul\":2588:2590   */\n      0x40\n        /* \"#utility.yul\":2577:2586   */\n      dup3\n        /* \"#utility.yul\":2573:2591   */\n      add\n        /* \"#utility.yul\":2565:2591   */\n      swap1\n      pop\n        /* \"#utility.yul\":2601:2724   */\n      tag_95\n        /* \"#utility.yul\":2721:2722   */\n      0x00\n        /* \"#utility.yul\":2710:2719   */\n      dup4\n        /* \"#utility.yul\":2706:2723   */\n      add\n        /* \"#utility.yul\":2697:2703   */\n      dup5\n        /* \"#utility.yul\":2601:2724   */\n      tag_60\n      jump\t// in\n    tag_95:\n        /* \"#utility.yul\":2405:2731   */\n      swap3\n      swap2\n      pop\n      pop\n      jump\t// out\n        /* \"#utility.yul\":2737:3066   */\n    tag_19:\n        /* \"#utility.yul\":2796:2802   */\n      0x00\n        /* \"#utility.yul\":2845:2847   */\n      0x20\n        /* \"#utility.yul\":2833:2842   */\n      dup3\n        /* \"#utility.yul\":2824:2831   */\n      dup5\n        /* \"#utility.yul\":2820:2843   */\n      sub\n        /* \"#utility.yul\":2816:2848   */\n      slt\n        /* \"#utility.yul\":2813:2932   */\n      iszero\n      tag_97\n      jumpi\n        /* \"#utility.yul\":2851:2930   */\n      tag_98\n      tag_50\n      jump\t// in\n    tag_98:\n        /* \"#utility.yul\":2813:2932   */\n    tag_97:\n        /* \"#utility.yul\":2971:2972   */\n      0x00\n        /* \"#utility.yul\":2996:3049   */\n      tag_99\n        /* \"#utility.yul\":3041:3048   */\n      dup5\n        /* \"#utility.yul\":3032:3038   */\n      dup3\n        /* \"#utility.yul\":3021:3030   */\n      dup6\n        /* \"#utility.yul\":3017:3039   */\n      add\n        /* \"#utility.yul\":2996:3049   */\n      tag_55\n      jump\t// in\n    tag_99:\n        /* \"#utility.yul\":2986:3049   */\n      swap2\n      pop\n        /* \"#utility.yul\":2942:3059   */\n      pop\n        /* \"#utility.yul\":2737:3066   */\n      swap3\n      swap2\n      pop\n      pop\n      jump\t// out\n        /* \"#utility.yul\":3072:3190   */\n    tag_61:\n        /* \"#utility.yul\":3159:3183   */\n      tag_101\n        /* \"#utility.yul\":3177:3182   */\n      dup2\n        /* \"#utility.yul\":3159:3183   */\n      tag_56\n      jump\t// in\n    tag_101:\n        /* \"#utility.yul\":3154:3157   */\n      dup3\n        /* \"#utility.yul\":3147:3184   */\n      mstore\n        /* \"#utility.yul\":3072:3190   */\n      pop\n      pop\n      jump\t// out\n        /* \"#utility.yul\":3196:3638   */\n    tag_22:\n        /* \"#utility.yul\":3345:3349   */\n      0x00\n        /* \"#utility.yul\":3383:3385   */\n      0x60\n        /* \"#utility.yul\":3372:3381   */\n      dup3\n        /* \"#utility.yul\":3368:3386   */\n      add\n        /* \"#utility.yul\":3360:3386   */\n      swap1\n      pop\n        /* \"#utility.yul\":3396:3467   */\n      tag_103\n        /* \"#utility.yul\":3464:3465   */\n      0x00\n        /* \"#utility.yul\":3453:3462   */\n      dup4\n        /* \"#utility.yul\":3449:3466   */\n      add\n        /* \"#utility.yul\":3440:3446   */\n      dup7\n        /* \"#utility.yul\":3396:3467   */\n      tag_61\n      jump\t// in\n    tag_103:\n        /* \"#utility.yul\":3477:3549   */\n      tag_104\n        /* \"#utility.yul\":3545:3547   */\n      0x20\n        /* \"#utility.yul\":3534:3543   */\n      dup4\n        /* \"#utility.yul\":3530:3548   */\n      add\n        /* \"#utility.yul\":3521:3527   */\n      dup6\n        /* \"#utility.yul\":3477:3549   */\n      tag_61\n      jump\t// in\n    tag_104:\n        /* \"#utility.yul\":3559:3631   */\n      tag_105\n        /* \"#utility.yul\":3627:3629   */\n      0x40\n        /* \"#utility.yul\":3616:3625   */\n      dup4\n        /* \"#utility.yul\":3612:3630   */\n      add\n        /* \"#utility.yul\":3603:3609   */\n      dup5\n        /* \"#utility.yul\":3559:3631   */\n      tag_61\n      jump\t// in\n    tag_105:\n        /* \"#utility.yul\":3196:3638   */\n      swap5\n      swap4\n      pop\n      pop\n      pop\n      pop\n      jump\t// out\n        /* \"#utility.yul\":3644:3748   */\n    tag_62:\n        /* \"#utility.yul\":3689:3696   */\n      0x00\n        /* \"#utility.yul\":3718:3742   */\n      tag_107\n        /* \"#utility.yul\":3736:3741   */\n      dup3\n        /* \"#utility.yul\":3718:3742   */\n      tag_52\n      jump\t// in\n    tag_107:\n        /* \"#utility.yul\":3707:3742   */\n      swap1\n      pop\n        /* \"#utility.yul\":3644:3748   */\n      swap2\n      swap1\n      pop\n      jump\t// out\n        /* \"#utility.yul\":3754:3892   */\n    tag_63:\n        /* \"#utility.yul\":3835:3867   */\n      tag_109\n        /* \"#utility.yul\":3861:3866   */\n      dup2\n        /* \"#utility.yul\":3835:3867   */\n      tag_62\n      jump\t// in\n    tag_109:\n        /* \"#utility.yul\":3828:3833   */\n      dup2\n        /* \"#utility.yul\":3825:3868   */\n      eq\n        /* \"#utility.yul\":3815:3886   */\n      tag_110\n      jumpi\n        /* \"#utility.yul\":3882:3883   */\n      0x00\n        /* \"#utility.yul\":3879:3880   */\n      dup1\n        /* \"#utility.yul\":3872:3884   */\n      revert\n        /* \"#utility.yul\":3815:3886   */\n    tag_110:\n        /* \"#utility.yul\":3754:3892   */\n      pop\n      jump\t// out\n        /* \"#utility.yul\":3898:4053   */\n    tag_64:\n        /* \"#utility.yul\":3952:3957   */\n      0x00\n        /* \"#utility.yul\":3990:3996   */\n      dup2\n        /* \"#utility.yul\":3977:3997   */\n      calldataload\n        /* \"#utility.yul\":3968:3997   */\n      swap1\n      pop\n        /* \"#utility.yul\":4006:4047   */\n      tag_112\n        /* \"#utility.yul\":4041:4046   */\n      dup2\n        /* \"#utility.yul\":4006:4047   */\n      tag_63\n      jump\t// in\n    tag_112:\n        /* \"#utility.yul\":3898:4053   */\n      swap3\n      swap2\n      pop\n      pop\n      jump\t// out\n        /* \"#utility.yul\":4059:4549   */\n    tag_26:\n        /* \"#utility.yul\":4135:4141   */\n      0x00\n        /* \"#utility.yul\":4143:4149   */\n      dup1\n        /* \"#utility.yul\":4192:4194   */\n      0x40\n        /* \"#utility.yul\":4180:4189   */\n      dup4\n        /* \"#utility.yul\":4171:4178   */\n      dup6\n        /* \"#utility.yul\":4167:4190   */\n      sub\n        /* \"#utility.yul\":4163:4195   */\n      slt\n        /* \"#utility.yul\":4160:4279   */\n      iszero\n      tag_114\n      jumpi\n        /* \"#utility.yul\":4198:4277   */\n      tag_115\n      tag_50\n      jump\t// in\n    tag_115:\n        /* \"#utility.yul\":4160:4279   */\n    tag_114:\n        /* \"#utility.yul\":4318:4319   */\n      0x00\n        /* \"#utility.yul\":4343:4404   */\n      tag_116\n        /* \"#utility.yul\":4396:4403   */\n      dup6\n        /* \"#utility.yul\":4387:4393   */\n      dup3\n        /* \"#utility.yul\":4376:4385   */\n      dup7\n        /* \"#utility.yul\":4372:4394   */\n      add\n        /* \"#utility.yul\":4343:4404   */\n      tag_64\n      jump\t// in\n    tag_116:\n        /* \"#utility.yul\":4333:4404   */\n      swap3\n      pop\n        /* \"#utility.yul\":4289:4414   */\n      pop\n        /* \"#utility.yul\":4453:4455   */\n      0x20\n        /* \"#utility.yul\":4479:4532   */\n      tag_117\n        /* \"#utility.yul\":4524:4531   */\n      dup6\n        /* \"#utility.yul\":4515:4521   */\n      dup3\n        /* \"#utility.yul\":4504:4513   */\n      dup7\n        /* \"#utility.yul\":4500:4522   */\n      add\n        /* \"#utility.yul\":4479:4532   */\n      tag_58\n      jump\t// in\n    tag_117:\n        /* \"#utility.yul\":4469:4532   */\n      swap2\n      pop\n        /* \"#utility.yul\":4424:4542   */\n      pop\n        /* \"#utility.yul\":4059:4549   */\n      swap3\n      pop\n      swap3\n      swap1\n      pop\n      jump\t// out\n        /* \"#utility.yul\":4555:4777   */\n    tag_33:\n        /* \"#utility.yul\":4648:4652   */\n      0x00\n        /* \"#utility.yul\":4686:4688   */\n      0x20\n        /* \"#utility.yul\":4675:4684   */\n      dup3\n        /* \"#utility.yul\":4671:4689   */\n      add\n        /* \"#utility.yul\":4663:4689   */\n      swap1\n      pop\n        /* \"#utility.yul\":4699:4770   */\n      tag_119\n        /* \"#utility.yul\":4767:4768   */\n      0x00\n        /* \"#utility.yul\":4756:4765   */\n      dup4\n        /* \"#utility.yul\":4752:4769   */\n      add\n        /* \"#utility.yul\":4743:4749   */\n      dup5\n        /* \"#utility.yul\":4699:4770   */\n      tag_61\n      jump\t// in\n    tag_119:\n        /* \"#utility.yul\":4555:4777   */\n      swap3\n      swap2\n      pop\n      pop\n      jump\t// out\n        /* \"#utility.yul\":4783:4963   */\n    tag_65:\n        /* \"#utility.yul\":4831:4908   */\n      0x4e487b7100000000000000000000000000000000000000000000000000000000\n        /* \"#utility.yul\":4828:4829   */\n      0x00\n        /* \"#utility.yul\":4821:4909   */\n      mstore\n        /* \"#utility.yul\":4928:4932   */\n      0x11\n        /* \"#utility.yul\":4925:4926   */\n      0x04\n        /* \"#utility.yul\":4918:4933   */\n      mstore\n        /* \"#utility.yul\":4952:4956   */\n      0x24\n        /* \"#utility.yul\":4949:4950   */\n      0x00\n        /* \"#utility.yul\":4942:4957   */\n      revert\n        /* \"#utility.yul\":4969:5274   */\n    tag_36:\n        /* \"#utility.yul\":5009:5012   */\n      0x00\n        /* \"#utility.yul\":5028:5048   */\n      tag_122\n        /* \"#utility.yul\":5046:5047   */\n      dup3\n        /* \"#utility.yul\":5028:5048   */\n      tag_56\n      jump\t// in\n    tag_122:\n        /* \"#utility.yul\":5023:5048   */\n      swap2\n      pop\n        /* \"#utility.yul\":5062:5082   */\n      tag_123\n        /* \"#utility.yul\":5080:5081   */\n      dup4\n        /* \"#utility.yul\":5062:5082   */\n      tag_56\n      jump\t// in\n    tag_123:\n        /* \"#utility.yul\":5057:5082   */\n      swap3\n      pop\n        /* \"#utility.yul\":5216:5217   */\n      dup3\n        /* \"#utility.yul\":5148:5214   */\n      0xffffffffffffffffffffffffffffffffffffffffffffffffffffffffffffffff\n        /* \"#utility.yul\":5144:5218   */\n      sub\n        /* \"#utility.yul\":5141:5142   */\n      dup3\n        /* \"#utility.yul\":5138:5219   */\n      gt\n        /* \"#utility.yul\":5135:5242   */\n      iszero\n      tag_124\n      jumpi\n        /* \"#utility.yul\":5222:5240   */\n      tag_125\n      tag_65\n      jump\t// in\n    tag_125:\n        /* \"#utility.yul\":5135:5242   */\n    tag_124:\n        /* \"#utility.yul\":5266:5267   */\n      dup3\n        /* \"#utility.yul\":5263:5264   */\n      dup3\n        /* \"#utility.yul\":5259:5268   */\n      add\n        /* \"#utility.yul\":5252:5268   */\n      swap1\n      pop\n        /* \"#utility.yul\":4969:5274   */\n      swap3\n      swap2\n      pop\n      pop\n      jump\t// out\n        /* \"#utility.yul\":5280:5513   */\n    tag_38:\n        /* \"#utility.yul\":5319:5322   */\n      0x00\n        /* \"#utility.yul\":5342:5366   */\n      tag_127\n        /* \"#utility.yul\":5360:5365   */\n      dup3\n        /* \"#utility.yul\":5342:5366   */\n      tag_56\n      jump\t// in\n    tag_127:\n        /* \"#utility.yul\":5333:5366   */\n      swap2\n      pop\n        /* \"#utility.yul\":5388:5454   */\n      0xffffffffffffffffffffffffffffffffffffffffffffffffffffffffffffffff\n        /* \"#utility.yul\":5381:5386   */\n      dup3\n        /* \"#utility.yul\":5378:5455   */\n      sub\n        /* \"#utility.yul\":5375:5478   */\n      tag_128\n      jumpi\n        /* \"#utility.yul\":5458:5476   */\n      tag_129\n      tag_65\n      jump\t// in\n    tag_129:\n        /* \"#utility.yul\":5375:5478   */\n    tag_128:\n        /* \"#utility.yul\":5505:5506   */\n      0x01\n        /* \"#utility.yul\":5498:5503   */\n      dup3\n        /* \"#utility.yul\":5494:5507   */\n      add\n        /* \"#utility.yul\":5487:5507   */\n      swap1\n      pop\n        /* \"#utility.yul\":5280:5513   */\n      swap2\n      swap1\n      pop\n      jump\t// out\n        /* \"#utility.yul\":5519:5710   */\n    tag_44:\n        /* \"#utility.yul\":5559:5563   */\n      0x00\n        /* \"#utility.yul\":5579:5599   */\n      tag_131\n        /* \"#utility.yul\":5597:5598   */\n      dup3\n        /* \"#utility.yul\":5579:5599   */\n      tag_56\n      jump\t// in\n    tag_131:\n        /* \"#utility.yul\":5574:5599   */\n      swap2\n      pop\n        /* \"#utility.yul\":5613:5633   */\n      tag_132\n        /* \"#utility.yul\":5631:5632   */\n      dup4\n        /* \"#utility.yul\":5613:5633   */\n      tag_56\n      jump\t// in\n    tag_132:\n        /* \"#utility.yul\":5608:5633   */\n      swap3\n      pop\n        /* \"#utility.yul\":5652:5653   */\n      dup3\n        /* \"#utility.yul\":5649:5650   */\n      dup3\n        /* \"#utility.yul\":5646:5654   */\n      lt\n        /* \"#utility.yul\":5643:5677   */\n      iszero\n      tag_133\n      jumpi\n        /* \"#utility.yul\":5657:5675   */\n      tag_134\n      tag_65\n      jump\t// in\n    tag_134:\n        /* \"#utility.yul\":5643:5677   */\n    tag_133:\n        /* \"#utility.yul\":5702:5703   */\n      dup3\n        /* \"#utility.yul\":5699:5700   */\n      dup3\n        /* \"#utility.yul\":5695:5704   */\n      sub\n        /* \"#utility.yul\":5687:5704   */\n      swap1\n      pop\n        /* \"#utility.yul\":5519:5710   */\n      swap3\n      swap2\n      pop\n      pop\n      jump\t// out\n\n    auxdata: 0xa26469706673582212207da092541d22d4d4c1a6383e0f55d463fe21446a563278615982b95e62b8954164736f6c634300080f0033\n}\n",
				"bytecode": {
					"linkReferences": {},
					"object": "608060405234801561001057600080fd5b506108f5806100206000396000f3fe60806040526004361061004a5760003560e01c806316c05aa21461004f57806397fc443714610059578063d18a42e114610096578063f274c897146100d5578063f8b2cb4f146100fe575b600080fd5b61005761013b565b005b34801561006557600080fd5b50610080600480360381019061007b9190610619565b6102b1565b60405161008d9190610697565b60405180910390f35b3480156100a257600080fd5b506100bd60048036038101906100b891906106b2565b610332565b6040516100cc939291906106ee565b60405180910390f35b3480156100e157600080fd5b506100fc60048036038101906100f79190610763565b61035c565b005b34801561010a57600080fd5b50610125600480360381019061012091906106b2565b61051b565b60405161013291906107a3565b60405180910390f35b346000803373ffffffffffffffffffffffffffffffffffffffff1673ffffffffffffffffffffffffffffffffffffffff168152602001908152602001600020600001600082825461018c91906107ed565b9250508190555060006040518060400160405280348152602001428152509050806000803373ffffffffffffffffffffffffffffffffffffffff1673ffffffffffffffffffffffffffffffffffffffff16815260200190815260200160002060020160008060003373ffffffffffffffffffffffffffffffffffffffff1673ffffffffffffffffffffffffffffffffffffffff16815260200190815260200160002060010154815260200190815260200160002060008201518160000155602082015181600101559050506000803373ffffffffffffffffffffffffffffffffffffffff1673ffffffffffffffffffffffffffffffffffffffff16815260200190815260200160002060010160008154809291906102a990610843565b919050555050565b6102b9610566565b6000808473ffffffffffffffffffffffffffffffffffffffff1673ffffffffffffffffffffffffffffffffffffffff168152602001908152602001600020600201600083815260200190815260200160002060405180604001604052908160008201548152602001600182015481525050905092915050565b60006020528060005260406000206000915090508060000154908060010154908060030154905083565b806000803373ffffffffffffffffffffffffffffffffffffffff1673ffffffffffffffffffffffffffffffffffffffff16815260200190815260200160002060000160008282546103ad919061088b565b9250508190555060006040518060400160405280838152602001428152509050806000803373ffffffffffffffffffffffffffffffffffffffff1673ffffffffffffffffffffffffffffffffffffffff16815260200190815260200160002060040160008060003373ffffffffffffffffffffffffffffffffffffffff1673ffffffffffffffffffffffffffffffffffffffff16815260200190815260200160002060030154815260200190815260200160002060008201518160000155602082015181600101559050506000803373ffffffffffffffffffffffffffffffffffffffff1673ffffffffffffffffffffffffffffffffffffffff16815260200190815260200160002060030160008154809291906104ca90610843565b91905055508273ffffffffffffffffffffffffffffffffffffffff166108fc839081150290604051600060405180830381858888f19350505050158015610515573d6000803e3d6000fd5b50505050565b60008060008373ffffffffffffffffffffffffffffffffffffffff1673ffffffffffffffffffffffffffffffffffffffff168152602001908152602001600020600001549050919050565b604051806040016040528060008152602001600081525090565b600080fd5b600073ffffffffffffffffffffffffffffffffffffffff82169050919050565b60006105b082610585565b9050919050565b6105c0816105a5565b81146105cb57600080fd5b50565b6000813590506105dd816105b7565b92915050565b6000819050919050565b6105f6816105e3565b811461060157600080fd5b50565b600081359050610613816105ed565b92915050565b600080604083850312156106305761062f610580565b5b600061063e858286016105ce565b925050602061064f85828601610604565b9150509250929050565b610662816105e3565b82525050565b60408201600082015161067e6000850182610659565b5060208201516106916020850182610659565b50505050565b60006040820190506106ac6000830184610668565b92915050565b6000602082840312156106c8576106c7610580565b5b60006106d6848285016105ce565b91505092915050565b6106e8816105e3565b82525050565b600060608201905061070360008301866106df565b61071060208301856106df565b61071d60408301846106df565b949350505050565b600061073082610585565b9050919050565b61074081610725565b811461074b57600080fd5b50565b60008135905061075d81610737565b92915050565b6000806040838503121561077a57610779610580565b5b60006107888582860161074e565b925050602061079985828601610604565b9150509250929050565b60006020820190506107b860008301846106df565b92915050565b7f4e487b7100000000000000000000000000000000000000000000000000000000600052601160045260246000fd5b60006107f8826105e3565b9150610803836105e3565b9250827fffffffffffffffffffffffffffffffffffffffffffffffffffffffffffffffff03821115610838576108376107be565b5b828201905092915050565b600061084e826105e3565b91507fffffffffffffffffffffffffffffffffffffffffffffffffffffffffffffffff82036108805761087f6107be565b5b600182019050919050565b6000610896826105e3565b91506108a1836105e3565b9250828210156108b4576108b36107be565b5b82820390509291505056fea26469706673582212207da092541d22d4d4c1a6383e0f55d463fe21446a563278615982b95e62b8954164736f6c634300080f0033",
					"opcodes": "PUSH1 0x80 PUSH1 0x40 MSTORE CALLVALUE DUP1 ISZERO PUSH2 0x10 JUMPI PUSH1 0x0 DUP1 REVERT JUMPDEST POP PUSH2 0x8F5 DUP1 PUSH2 0x20 PUSH1 0x0 CODECOPY PUSH1 0x0 RETURN INVALID PUSH1 0x80 PUSH1 0x40 MSTORE PUSH1 0x4 CALLDATASIZE LT PUSH2 0x4A JUMPI PUSH1 0x0 CALLDATALOAD PUSH1 0xE0 SHR DUP1 PUSH4 0x16C05AA2 EQ PUSH2 0x4F JUMPI DUP1 PUSH4 0x97FC4437 EQ PUSH2 0x59 JUMPI DUP1 PUSH4 0xD18A42E1 EQ PUSH2 0x96 JUMPI DUP1 PUSH4 0xF274C897 EQ PUSH2 0xD5 JUMPI DUP1 PUSH4 0xF8B2CB4F EQ PUSH2 0xFE JUMPI JUMPDEST PUSH1 0x0 DUP1 REVERT JUMPDEST PUSH2 0x57 PUSH2 0x13B JUMP JUMPDEST STOP JUMPDEST CALLVALUE DUP1 ISZERO PUSH2 0x65 JUMPI PUSH1 0x0 DUP1 REVERT JUMPDEST POP PUSH2 0x80 PUSH1 0x4 DUP1 CALLDATASIZE SUB DUP2 ADD SWAP1 PUSH2 0x7B SWAP2 SWAP1 PUSH2 0x619 JUMP JUMPDEST PUSH2 0x2B1 JUMP JUMPDEST PUSH1 0x40 MLOAD PUSH2 0x8D SWAP2 SWAP1 PUSH2 0x697 JUMP JUMPDEST PUSH1 0x40 MLOAD DUP1 SWAP2 SUB SWAP1 RETURN JUMPDEST CALLVALUE DUP1 ISZERO PUSH2 0xA2 JUMPI PUSH1 0x0 DUP1 REVERT JUMPDEST POP PUSH2 0xBD PUSH1 0x4 DUP1 CALLDATASIZE SUB DUP2 ADD SWAP1 PUSH2 0xB8 SWAP2 SWAP1 PUSH2 0x6B2 JUMP JUMPDEST PUSH2 0x332 JUMP JUMPDEST PUSH1 0x40 MLOAD PUSH2 0xCC SWAP4 SWAP3 SWAP2 SWAP1 PUSH2 0x6EE JUMP JUMPDEST PUSH1 0x40 MLOAD DUP1 SWAP2 SUB SWAP1 RETURN JUMPDEST CALLVALUE DUP1 ISZERO PUSH2 0xE1 JUMPI PUSH1 0x0 DUP1 REVERT JUMPDEST POP PUSH2 0xFC PUSH1 0x4 DUP1 CALLDATASIZE SUB DUP2 ADD SWAP1 PUSH2 0xF7 SWAP2 SWAP1 PUSH2 0x763 JUMP JUMPDEST PUSH2 0x35C JUMP JUMPDEST STOP JUMPDEST CALLVALUE DUP1 ISZERO PUSH2 0x10A JUMPI PUSH1 0x0 DUP1 REVERT JUMPDEST POP PUSH2 0x125 PUSH1 0x4 DUP1 CALLDATASIZE SUB DUP2 ADD SWAP1 PUSH2 0x120 SWAP2 SWAP1 PUSH2 0x6B2 JUMP JUMPDEST PUSH2 0x51B JUMP JUMPDEST PUSH1 0x40 MLOAD PUSH2 0x132 SWAP2 SWAP1 PUSH2 0x7A3 JUMP JUMPDEST PUSH1 0x40 MLOAD DUP1 SWAP2 SUB SWAP1 RETURN JUMPDEST CALLVALUE PUSH1 0x0 DUP1 CALLER PUSH20 0xFFFFFFFFFFFFFFFFFFFFFFFFFFFFFFFFFFFFFFFF AND PUSH20 0xFFFFFFFFFFFFFFFFFFFFFFFFFFFFFFFFFFFFFFFF AND DUP2 MSTORE PUSH1 0x20 ADD SWAP1 DUP2 MSTORE PUSH1 0x20 ADD PUSH1 0x0 KECCAK256 PUSH1 0x0 ADD PUSH1 0x0 DUP3 DUP3 SLOAD PUSH2 0x18C SWAP2 SWAP1 PUSH2 0x7ED JUMP JUMPDEST SWAP3 POP POP DUP2 SWAP1 SSTORE POP PUSH1 0x0 PUSH1 0x40 MLOAD DUP1 PUSH1 0x40 ADD PUSH1 0x40 MSTORE DUP1 CALLVALUE DUP2 MSTORE PUSH1 0x20 ADD TIMESTAMP DUP2 MSTORE POP SWAP1 POP DUP1 PUSH1 0x0 DUP1 CALLER PUSH20 0xFFFFFFFFFFFFFFFFFFFFFFFFFFFFFFFFFFFFFFFF AND PUSH20 0xFFFFFFFFFFFFFFFFFFFFFFFFFFFFFFFFFFFFFFFF AND DUP2 MSTORE PUSH1 0x20 ADD SWAP1 DUP2 MSTORE PUSH1 0x20 ADD PUSH1 0x0 KECCAK256 PUSH1 0x2 ADD PUSH1 0x0 DUP1 PUSH1 0x0 CALLER PUSH20 0xFFFFFFFFFFFFFFFFFFFFFFFFFFFFFFFFFFFFFFFF AND PUSH20 0xFFFFFFFFFFFFFFFFFFFFFFFFFFFFFFFFFFFFFFFF AND DUP2 MSTORE PUSH1 0x20 ADD SWAP1 DUP2 MSTORE PUSH1 0x20 ADD PUSH1 0x0 KECCAK256 PUSH1 0x1 ADD SLOAD DUP2 MSTORE PUSH1 0x20 ADD SWAP1 DUP2 MSTORE PUSH1 0x20 ADD PUSH1 0x0 KECCAK256 PUSH1 0x0 DUP3 ADD MLOAD DUP2 PUSH1 0x0 ADD SSTORE PUSH1 0x20 DUP3 ADD MLOAD DUP2 PUSH1 0x1 ADD SSTORE SWAP1 POP POP PUSH1 0x0 DUP1 CALLER PUSH20 0xFFFFFFFFFFFFFFFFFFFFFFFFFFFFFFFFFFFFFFFF AND PUSH20 0xFFFFFFFFFFFFFFFFFFFFFFFFFFFFFFFFFFFFFFFF AND DUP2 MSTORE PUSH1 0x20 ADD SWAP1 DUP2 MSTORE PUSH1 0x20 ADD PUSH1 0x0 KECCAK256 PUSH1 0x1 ADD PUSH1 0x0 DUP2 SLOAD DUP1 SWAP3 SWAP2 SWAP1 PUSH2 0x2A9 SWAP1 PUSH2 0x843 JUMP JUMPDEST SWAP2 SWAP1 POP SSTORE POP POP JUMP JUMPDEST PUSH2 0x2B9 PUSH2 0x566 JUMP JUMPDEST PUSH1 0x0 DUP1 DUP5 PUSH20 0xFFFFFFFFFFFFFFFFFFFFFFFFFFFFFFFFFFFFFFFF AND PUSH20 0xFFFFFFFFFFFFFFFFFFFFFFFFFFFFFFFFFFFFFFFF AND DUP2 MSTORE PUSH1 0x20 ADD SWAP1 DUP2 MSTORE PUSH1 0x20 ADD PUSH1 0x0 KECCAK256 PUSH1 0x2 ADD PUSH1 0x0 DUP4 DUP2 MSTORE PUSH1 0x20 ADD SWAP1 DUP2 MSTORE PUSH1 0x20 ADD PUSH1 0x0 KECCAK256 PUSH1 0x40 MLOAD DUP1 PUSH1 0x40 ADD PUSH1 0x40 MSTORE SWAP1 DUP2 PUSH1 0x0 DUP3 ADD SLOAD DUP2 MSTORE PUSH1 0x20 ADD PUSH1 0x1 DUP3 ADD SLOAD DUP2 MSTORE POP POP SWAP1 POP SWAP3 SWAP2 POP POP JUMP JUMPDEST PUSH1 0x0 PUSH1 0x20 MSTORE DUP1 PUSH1 0x0 MSTORE PUSH1 0x40 PUSH1 0x0 KECCAK256 PUSH1 0x0 SWAP2 POP SWAP1 POP DUP1 PUSH1 0x0 ADD SLOAD SWAP1 DUP1 PUSH1 0x1 ADD SLOAD SWAP1 DUP1 PUSH1 0x3 ADD SLOAD SWAP1 POP DUP4 JUMP JUMPDEST DUP1 PUSH1 0x0 DUP1 CALLER PUSH20 0xFFFFFFFFFFFFFFFFFFFFFFFFFFFFFFFFFFFFFFFF AND PUSH20 0xFFFFFFFFFFFFFFFFFFFFFFFFFFFFFFFFFFFFFFFF AND DUP2 MSTORE PUSH1 0x20 ADD SWAP1 DUP2 MSTORE PUSH1 0x20 ADD PUSH1 0x0 KECCAK256 PUSH1 0x0 ADD PUSH1 0x0 DUP3 DUP3 SLOAD PUSH2 0x3AD SWAP2 SWAP1 PUSH2 0x88B JUMP JUMPDEST SWAP3 POP POP DUP2 SWAP1 SSTORE POP PUSH1 0x0 PUSH1 0x40 MLOAD DUP1 PUSH1 0x40 ADD PUSH1 0x40 MSTORE DUP1 DUP4 DUP2 MSTORE PUSH1 0x20 ADD TIMESTAMP DUP2 MSTORE POP SWAP1 POP DUP1 PUSH1 0x0 DUP1 CALLER PUSH20 0xFFFFFFFFFFFFFFFFFFFFFFFFFFFFFFFFFFFFFFFF AND PUSH20 0xFFFFFFFFFFFFFFFFFFFFFFFFFFFFFFFFFFFFFFFF AND DUP2 MSTORE PUSH1 0x20 ADD SWAP1 DUP2 MSTORE PUSH1 0x20 ADD PUSH1 0x0 KECCAK256 PUSH1 0x4 ADD PUSH1 0x0 DUP1 PUSH1 0x0 CALLER PUSH20 0xFFFFFFFFFFFFFFFFFFFFFFFFFFFFFFFFFFFFFFFF AND PUSH20 0xFFFFFFFFFFFFFFFFFFFFFFFFFFFFFFFFFFFFFFFF AND DUP2 MSTORE PUSH1 0x20 ADD SWAP1 DUP2 MSTORE PUSH1 0x20 ADD PUSH1 0x0 KECCAK256 PUSH1 0x3 ADD SLOAD DUP2 MSTORE PUSH1 0x20 ADD SWAP1 DUP2 MSTORE PUSH1 0x20 ADD PUSH1 0x0 KECCAK256 PUSH1 0x0 DUP3 ADD MLOAD DUP2 PUSH1 0x0 ADD SSTORE PUSH1 0x20 DUP3 ADD MLOAD DUP2 PUSH1 0x1 ADD SSTORE SWAP1 POP POP PUSH1 0x0 DUP1 CALLER PUSH20 0xFFFFFFFFFFFFFFFFFFFFFFFFFFFFFFFFFFFFFFFF AND PUSH20 0xFFFFFFFFFFFFFFFFFFFFFFFFFFFFFFFFFFFFFFFF AND DUP2 MSTORE PUSH1 0x20 ADD SWAP1 DUP2 MSTORE PUSH1 0x20 ADD PUSH1 0x0 KECCAK256 PUSH1 0x3 ADD PUSH1 0x0 DUP2 SLOAD DUP1 SWAP3 SWAP2 SWAP1 PUSH2 0x4CA SWAP1 PUSH2 0x843 JUMP JUMPDEST SWAP2 SWAP1 POP SSTORE POP DUP3 PUSH20 0xFFFFFFFFFFFFFFFFFFFFFFFFFFFFFFFFFFFFFFFF AND PUSH2 0x8FC DUP4 SWAP1 DUP2 ISZERO MUL SWAP1 PUSH1 0x40 MLOAD PUSH1 0x0 PUSH1 0x40 MLOAD DUP1 DUP4 SUB DUP2 DUP6 DUP9 DUP9 CALL SWAP4 POP POP POP POP ISZERO DUP1 ISZERO PUSH2 0x515 JUMPI RETURNDATASIZE PUSH1 0x0 DUP1 RETURNDATACOPY RETURNDATASIZE PUSH1 0x0 REVERT JUMPDEST POP POP POP POP JUMP JUMPDEST PUSH1 0x0 DUP1 PUSH1 0x0 DUP4 PUSH20 0xFFFFFFFFFFFFFFFFFFFFFFFFFFFFFFFFFFFFFFFF AND PUSH20 0xFFFFFFFFFFFFFFFFFFFFFFFFFFFFFFFFFFFFFFFF AND DUP2 MSTORE PUSH1 0x20 ADD SWAP1 DUP2 MSTORE PUSH1 0x20 ADD PUSH1 0x0 KECCAK256 PUSH1 0x0 ADD SLOAD SWAP1 POP SWAP2 SWAP1 POP JUMP JUMPDEST PUSH1 0x40 MLOAD DUP1 PUSH1 0x40 ADD PUSH1 0x40 MSTORE DUP1 PUSH1 0x0 DUP2 MSTORE PUSH1 0x20 ADD PUSH1 0x0 DUP2 MSTORE POP SWAP1 JUMP JUMPDEST PUSH1 0x0 DUP1 REVERT JUMPDEST PUSH1 0x0 PUSH20 0xFFFFFFFFFFFFFFFFFFFFFFFFFFFFFFFFFFFFFFFF DUP3 AND SWAP1 POP SWAP2 SWAP1 POP JUMP JUMPDEST PUSH1 0x0 PUSH2 0x5B0 DUP3 PUSH2 0x585 JUMP JUMPDEST SWAP1 POP SWAP2 SWAP1 POP JUMP JUMPDEST PUSH2 0x5C0 DUP2 PUSH2 0x5A5 JUMP JUMPDEST DUP2 EQ PUSH2 0x5CB JUMPI PUSH1 0x0 DUP1 REVERT JUMPDEST POP JUMP JUMPDEST PUSH1 0x0 DUP2 CALLDATALOAD SWAP1 POP PUSH2 0x5DD DUP2 PUSH2 0x5B7 JUMP JUMPDEST SWAP3 SWAP2 POP POP JUMP JUMPDEST PUSH1 0x0 DUP2 SWAP1 POP SWAP2 SWAP1 POP JUMP JUMPDEST PUSH2 0x5F6 DUP2 PUSH2 0x5E3 JUMP JUMPDEST DUP2 EQ PUSH2 0x601 JUMPI PUSH1 0x0 DUP1 REVERT JUMPDEST POP JUMP JUMPDEST PUSH1 0x0 DUP2 CALLDATALOAD SWAP1 POP PUSH2 0x613 DUP2 PUSH2 0x5ED JUMP JUMPDEST SWAP3 SWAP2 POP POP JUMP JUMPDEST PUSH1 0x0 DUP1 PUSH1 0x40 DUP4 DUP6 SUB SLT ISZERO PUSH2 0x630 JUMPI PUSH2 0x62F PUSH2 0x580 JUMP JUMPDEST JUMPDEST PUSH1 0x0 PUSH2 0x63E DUP6 DUP3 DUP7 ADD PUSH2 0x5CE JUMP JUMPDEST SWAP3 POP POP PUSH1 0x20 PUSH2 0x64F DUP6 DUP3 DUP7 ADD PUSH2 0x604 JUMP JUMPDEST SWAP2 POP POP SWAP3 POP SWAP3 SWAP1 POP JUMP JUMPDEST PUSH2 0x662 DUP2 PUSH2 0x5E3 JUMP JUMPDEST DUP3 MSTORE POP POP JUMP JUMPDEST PUSH1 0x40 DUP3 ADD PUSH1 0x0 DUP3 ADD MLOAD PUSH2 0x67E PUSH1 0x0 DUP6 ADD DUP3 PUSH2 0x659 JUMP JUMPDEST POP PUSH1 0x20 DUP3 ADD MLOAD PUSH2 0x691 PUSH1 0x20 DUP6 ADD DUP3 PUSH2 0x659 JUMP JUMPDEST POP POP POP POP JUMP JUMPDEST PUSH1 0x0 PUSH1 0x40 DUP3 ADD SWAP1 POP PUSH2 0x6AC PUSH1 0x0 DUP4 ADD DUP5 PUSH2 0x668 JUMP JUMPDEST SWAP3 SWAP2 POP POP JUMP JUMPDEST PUSH1 0x0 PUSH1 0x20 DUP3 DUP5 SUB SLT ISZERO PUSH2 0x6C8 JUMPI PUSH2 0x6C7 PUSH2 0x580 JUMP JUMPDEST JUMPDEST PUSH1 0x0 PUSH2 0x6D6 DUP5 DUP3 DUP6 ADD PUSH2 0x5CE JUMP JUMPDEST SWAP2 POP POP SWAP3 SWAP2 POP POP JUMP JUMPDEST PUSH2 0x6E8 DUP2 PUSH2 0x5E3 JUMP JUMPDEST DUP3 MSTORE POP POP JUMP JUMPDEST PUSH1 0x0 PUSH1 0x60 DUP3 ADD SWAP1 POP PUSH2 0x703 PUSH1 0x0 DUP4 ADD DUP7 PUSH2 0x6DF JUMP JUMPDEST PUSH2 0x710 PUSH1 0x20 DUP4 ADD DUP6 PUSH2 0x6DF JUMP JUMPDEST PUSH2 0x71D PUSH1 0x40 DUP4 ADD DUP5 PUSH2 0x6DF JUMP JUMPDEST SWAP5 SWAP4 POP POP POP POP JUMP JUMPDEST PUSH1 0x0 PUSH2 0x730 DUP3 PUSH2 0x585 JUMP JUMPDEST SWAP1 POP SWAP2 SWAP1 POP JUMP JUMPDEST PUSH2 0x740 DUP2 PUSH2 0x725 JUMP JUMPDEST DUP2 EQ PUSH2 0x74B JUMPI PUSH1 0x0 DUP1 REVERT JUMPDEST POP JUMP JUMPDEST PUSH1 0x0 DUP2 CALLDATALOAD SWAP1 POP PUSH2 0x75D DUP2 PUSH2 0x737 JUMP JUMPDEST SWAP3 SWAP2 POP POP JUMP JUMPDEST PUSH1 0x0 DUP1 PUSH1 0x40 DUP4 DUP6 SUB SLT ISZERO PUSH2 0x77A JUMPI PUSH2 0x779 PUSH2 0x580 JUMP JUMPDEST JUMPDEST PUSH1 0x0 PUSH2 0x788 DUP6 DUP3 DUP7 ADD PUSH2 0x74E JUMP JUMPDEST SWAP3 POP POP PUSH1 0x20 PUSH2 0x799 DUP6 DUP3 DUP7 ADD PUSH2 0x604 JUMP JUMPDEST SWAP2 POP POP SWAP3 POP SWAP3 SWAP1 POP JUMP JUMPDEST PUSH1 0x0 PUSH1 0x20 DUP3 ADD SWAP1 POP PUSH2 0x7B8 PUSH1 0x0 DUP4 ADD DUP5 PUSH2 0x6DF JUMP JUMPDEST SWAP3 SWAP2 POP POP JUMP JUMPDEST PUSH32 0x4E487B7100000000000000000000000000000000000000000000000000000000 PUSH1 0x0 MSTORE PUSH1 0x11 PUSH1 0x4 MSTORE PUSH1 0x24 PUSH1 0x0 REVERT JUMPDEST PUSH1 0x0 PUSH2 0x7F8 DUP3 PUSH2 0x5E3 JUMP JUMPDEST SWAP2 POP PUSH2 0x803 DUP4 PUSH2 0x5E3 JUMP JUMPDEST SWAP3 POP DUP3 PUSH32 0xFFFFFFFFFFFFFFFFFFFFFFFFFFFFFFFFFFFFFFFFFFFFFFFFFFFFFFFFFFFFFFFF SUB DUP3 GT ISZERO PUSH2 0x838 JUMPI PUSH2 0x837 PUSH2 0x7BE JUMP JUMPDEST JUMPDEST DUP3 DUP3 ADD SWAP1 POP SWAP3 SWAP2 POP POP JUMP JUMPDEST PUSH1 0x0 PUSH2 0x84E DUP3 PUSH2 0x5E3 JUMP JUMPDEST SWAP2 POP PUSH32 0xFFFFFFFFFFFFFFFFFFFFFFFFFFFFFFFFFFFFFFFFFFFFFFFFFFFFFFFFFFFFFFFF DUP3 SUB PUSH2 0x880 JUMPI PUSH2 0x87F PUSH2 0x7BE JUMP JUMPDEST JUMPDEST PUSH1 0x1 DUP3 ADD SWAP1 POP SWAP2 SWAP1 POP JUMP JUMPDEST PUSH1 0x0 PUSH2 0x896 DUP3 PUSH2 0x5E3 JUMP JUMPDEST SWAP2 POP PUSH2 0x8A1 DUP4 PUSH2 0x5E3 JUMP JUMPDEST SWAP3 POP DUP3 DUP3 LT ISZERO PUSH2 0x8B4 JUMPI PUSH2 0x8B3 PUSH2 0x7BE JUMP JUMPDEST JUMPDEST DUP3 DUP3 SUB SWAP1 POP SWAP3 SWAP2 POP POP JUMP INVALID LOG2 PUSH5 0x6970667358 0x22 SLT KECCAK256 PUSH30 0xA092541D22D4D4C1A6383E0F55D463FE21446A563278615982B95E62B895 COINBASE PUSH5 0x736F6C6343 STOP ADDMOD 0xF STOP CALLER "
				},
				"gasEstimates": {
					"creation": {
						"codeDepositCost": "458600",
						"executionCost": "493",
						"totalCost": "459093"
					},
					"external": {
						"balanceReceived(address)": "infinite",
						"depositMoney()": "infinite",
						"getBalance(address)": "2913",
						"getDeposiitNum(address,uint256)": "infinite",
						"withdrawMoney(address,uint256)": "infinite"
					}
				},
				"methodIdentifiers": {
					"balanceReceived(address)": "d18a42e1",
					"depositMoney()": "16c05aa2",
					"getBalance(address)": "f8b2cb4f",
					"getDeposiitNum(address,uint256)": "97fc4437",
					"withdrawMoney(address,uint256)": "f274c897"
				}
			},
			"storageLayout": {
				"storage": [
					{
						"astId": 28,
						"contract": "contracts/ExampleMappingStruct.sol:MappingsStructExample",
						"label": "balanceReceived",
						"offset": 0,
						"slot": "0",
						"type": "t_mapping(t_address,t_struct(Balance)23_storage)"
					}
				],
				"types": {
					"t_address": {
						"encoding": "inplace",
						"label": "address",
						"numberOfBytes": "20"
					},
					"t_mapping(t_address,t_struct(Balance)23_storage)": {
						"encoding": "mapping",
						"key": "t_address",
						"label": "mapping(address => struct MappingsStructExample.Balance)",
						"numberOfBytes": "32",
						"value": "t_struct(Balance)23_storage"
					},
					"t_mapping(t_uint256,t_struct(Transaction)6_storage)": {
						"encoding": "mapping",
						"key": "t_uint256",
						"label": "mapping(uint256 => struct MappingsStructExample.Transaction)",
						"numberOfBytes": "32",
						"value": "t_struct(Transaction)6_storage"
					},
					"t_struct(Balance)23_storage": {
						"encoding": "inplace",
						"label": "struct MappingsStructExample.Balance",
						"members": [
							{
								"astId": 8,
								"contract": "contracts/ExampleMappingStruct.sol:MappingsStructExample",
								"label": "totalBalance",
								"offset": 0,
								"slot": "0",
								"type": "t_uint256"
							},
							{
								"astId": 10,
								"contract": "contracts/ExampleMappingStruct.sol:MappingsStructExample",
								"label": "numDeposits",
								"offset": 0,
								"slot": "1",
								"type": "t_uint256"
							},
							{
								"astId": 15,
								"contract": "contracts/ExampleMappingStruct.sol:MappingsStructExample",
								"label": "deposits",
								"offset": 0,
								"slot": "2",
								"type": "t_mapping(t_uint256,t_struct(Transaction)6_storage)"
							},
							{
								"astId": 17,
								"contract": "contracts/ExampleMappingStruct.sol:MappingsStructExample",
								"label": "numWithdrawals",
								"offset": 0,
								"slot": "3",
								"type": "t_uint256"
							},
							{
								"astId": 22,
								"contract": "contracts/ExampleMappingStruct.sol:MappingsStructExample",
								"label": "withdrawals",
								"offset": 0,
								"slot": "4",
								"type": "t_mapping(t_uint256,t_struct(Transaction)6_storage)"
							}
						],
						"numberOfBytes": "160"
					},
					"t_struct(Transaction)6_storage": {
						"encoding": "inplace",
						"label": "struct MappingsStructExample.Transaction",
						"members": [
							{
								"astId": 3,
								"contract": "contracts/ExampleMappingStruct.sol:MappingsStructExample",
								"label": "amount",
								"offset": 0,
								"slot": "0",
								"type": "t_uint256"
							},
							{
								"astId": 5,
								"contract": "contracts/ExampleMappingStruct.sol:MappingsStructExample",
								"label": "timestamp",
								"offset": 0,
								"slot": "1",
								"type": "t_uint256"
							}
						],
						"numberOfBytes": "64"
					},
					"t_uint256": {
						"encoding": "inplace",
						"label": "uint256",
						"numberOfBytes": "32"
					}
				}
			},
			"userdoc": {
				"kind": "user",
				"methods": {},
				"version": 1
			}
		}
	}
}